:020000040800F2
:1000000078110020C5020008395C00082951000859
:10001000355C0008CD060008C1680008000000003B
:10002000000000000000000000000000415C00082B
:1000300025070008000000003D5C0008455C000842
:10004000DF020008DF020008DF020008DF0200080C
:10005000DF020008DF020008DF020008DF020008FC
:10006000DF020008DF020008DF020008D1060008F6
:10007000DD060008E9060008F5060008010700088B
:10008000DF020008DF020008DF020008DF020008CC
:10009000DF020008DF020008DF020008DF020008BC
:1000A000DF020008DF020008DF020008DF020008AC
:1000B0005D5C0008695C0008755C0008DF020008F0
:1000C000DF020008DF020008DF020008DF0200088C
:1000D000DF020008B5680008DF020008DF02000840
:1000E000DF020008DF020008DF020008DF0200086C
:1000F000DF020008DF020008DF020008DF0200085C
:10010000DF020008DF020008DF020008DF0200084B
:10011000DF020008DF020008DF020008DF0200083B
:100120000D07000819070008DF020008DF020008B9
:10013000DF020008DF020008DF020008DF0200081B
:10014000DF020008DF020008DF020008DF0200080B
:10015000DF020008DF020008DF020008DF020008FB
:10016000DF020008DF020008DF020008DF020008EB
:10017000DF020008DF020008DF020008DF020008DB
:10018000DF020008DF020008DF020008DF020008CB
:10019000DF0200080000000035070008DF02000849
:1001A000DF020008DF020008DF020008DF020008AB
:1001B000DF020008DF020008DF020008DF0200089B
:1001C000DF020008DF020008DF020008DF0200088B
:1001D000DF020008DF02000800F002F800F062F819
:1001E00014A696E8000CB244B344DA4501D100F0FD
:1001F00059F8BAE80F000FA696E83000A5EB040501
:1002000004EB0607AAEB0704A7F101074FEA15154F
:100210004FEA3414A4F10104AC4201D300F042F8D7
:1002200013F0010F18BFFB1A43F0010300F001F8AF
:10023000DBE71847DC830000FC8300000A4410F869
:10024000014B14F00F0508BF10F8015B240908BF2B
:1002500010F8014B6D1E05D010F8013B6D1E01F822
:10026000013BF9D1641E03D0641E01F8015BFBD190
:100270009142E4D37047000070470000002300243F
:1002800000250026103A28BF78C1FBD8520728BFA6
:1002900030C148BF0B6070471FB508F076F91FBD2D
:1002A00010B510BD00F0D0F81146FFF7F5FF07F0CC
:1002B000DBFD00F0EEF803B4FFF7F2FF03BC00F043
:1002C000F5F800000948804709480047FEE7FEE7C7
:1002D000FEE7FEE7FEE7FEE7FEE7FEE7FEE7FEE7F6
:1002E00004480549054A064B70470000495C000870
:1002F000D9010008780B002078110020780D00202B
:10030000780D002053EA020C00F069802DE9F04BD3
:100310004FF00006002B1FBFB3FA83F503FA05F474
:1003200024FA05F65E4012BF1643B2FA82F502FACD
:1003300005F4C5F120051EBF22FA05FC44EA0C04B1
:10034000203556EA044C4FEA144418BF641C4FF0A1
:1003500000084FF00009904271EB030C39D30029DB
:1003600019BFB1FA81F701FA07F6B0FA80F700FA7F
:1003700007F6C7F120071EBF20FA07FC46EA0C0665
:100380002037B6FBF4FCA7EB0507103F07F01F0B67
:10039000CBF120062CFA06F60CFA0BFB44BFB34651
:1003A0000026202FA4BF5E464FF0000B5BEA060C30
:1003B00008BF4FF0010B19EB0B0948EB0608ABFB2C
:1003C000027C06FB02CC0BFB03CCC01B71EB0C01C7
:1003D000C1E70B46024641464846BDE8F08B13B5DF
:1003E000084318BF4FF0FF300146AFF30080BDE86F
:1003F0001C4070474FF0000200B5134694469646E5
:10040000203922BFA0E80C50A0E80C50B1F1200127
:10041000BFF4F7AF090728BFA0E80C5048BF0CC0D5
:100420005DF804EB890028BF40F8042B08BF704733
:1004300048BF20F8022B11F0804F18BF00F8012BA5
:100440007047704770477047754600F02BF8AE460E
:1004500005006946534620F00700854618B020B5D0
:10046000FFF73EFFBDE820404FF000064FF00007C9
:100470004FF000084FF0000BAC46ACE8C009ACE808
:10048000C009ACE8C009ACE8C00921F007018D46FD
:10049000704710B50446AFF300802046BDE8104019
:1004A000FFF709BF00487047880100200149182064
:1004B000ABBEFEE726000200704700000146806ADE
:1004C000C36DC26D13F0500F08D0D20648BF00F0C4
:1004D0001BBC406D426B0846104700BF42F40071E0
:1004E000C16501680B68CA681B0703D4910707D56B
:1004F00000F006BC12F4406FFAD1C9688904F7D441
:10050000C16D21F48071C165C16DC90448BF00F09F
:10051000F7BBC16D41F00101C16500F0F1BB000006
:10052000806AC16D41F04001C165016E41F0040176
:10053000016600F0E9BB0000806A00F0E3BB000048
:10054000B0B5016804468A688868C0074FF00000AB
:1005500031D012F0020218BFB0BD886800F00D0063
:1005600001281FD188684FF6C072C7F6FF7210408D
:10057000023088600320086001F086FE21688968E7
:10058000C90704BF0020B0BD054602E08068C0076F
:1005900012D001F079FE411B20680329F6D381684F
:1005A000C907F3D0E06D40F01000E065206E40F028
:1005B000010020660120B0BD0020B0BD70B582B042
:1005C00004460020019021688A68D20711D14FF6B5
:1005D000C076C7F6FF76886806F17F0210420BD01E
:1005E000E06D40F01000E065206E40F001002066F4
:1005F000012002B070BD00BF88684FF4C162304076
:1006000040F00100886040F20010C5F20000814215
:1006100008BF4FF40272B1F1A04F08BF4FF402724D
:100620001058000222D401F02FFE21680A68D20778
:1006300018D1054603E000BF0868C00712D18868DA
:10064000C00704D18868304040F00100886001F0A4
:100650001BFE401B21680328EED30868C007EBD1BE
:10066000BEE700BF002002B070BD00BF40F208002E
:10067000C2F20000006842F663518009C0F23E51A8
:10068000A0FB0101880900EB40000C2101EB800078
:10069000019001980028C6D0019801380190019876
:1006A0000028C0D001980138019001980028BAD0E4
:1006B00001980138019001980028B4D001980138C0
:1006C000019001980028E7D1ADE70000FEE70000A7
:1006D00040F2F010C2F2000000F0F2BE40F2C4504E
:1006E000C2F2000000F0ECBE40F22460C2F2000052
:1006F00000F0E6BE40F24470C2F2000000F0E0BE3E
:1007000040F2A470C2F2000000F0DABE40F2846051
:10071000C2F2000000F0D4BE40F2E460C2F2000079
:1007200000F0CEBE70470000EFF3108072B600BF3D
:10073000FEE7000040F60400C2F2000001F034BA07
:10074000B0B582B004460020019094F8580001280A
:1007500002D1022002B0B0BD012084F8580020462A
:100760000D46FFF7EDFEE16D10B141F010014BE0D9
:1007700041F2021291430231E16521684FF6C073E4
:10078000D1F808C0C3F6FF7303EA0C0305F08045F7
:100790004DF601622B44C0F2040203F100438B606A
:1007A0008B68B3F1FF3F2BDC019B01330193019B6D
:1007B00093421DD88B68B3F1FF3F21DC019B0133CD
:1007C0000193019B934213D88B68B3F1FF3F17DC71
:1007D000019B01330193019B934209D88B68B3F1CC
:1007E000FF3F0DDC019B01330193019B9342D7D95D
:1007F000E06D40F0100020F00201012004E000BF95
:10080000E16D012262F30101E165002184F85810D5
:1008100002B0B0BD90F85820012A04BF02207047F2
:1008200070B582B0002201920092026840F2080C7A
:10083000C5F2000CB2F1A04F0CF1F80508D040F25F
:100840000043C5F200039A4234D10CF59F6300E0E7
:100850002B469B68946823435B072BD44FF4E063DB
:10086000D1F800E0AA4208BF4FF44073B2F1A04FA4
:1008700008BF4FF440735CF80340BEF1000F24F44E
:10088000604425D04D6890F8386042F4807245EAA3
:1008900046352C4340F20015C5F20005AA424CF83B
:1008A000034027D1DCF80020DCF800412243D207C6
:1008B00048D129E0C16D41F02001C165012100222C
:1008C00080F8582002B0BDE870400846704700BF6D
:1008D00042F4807140F20012C5F2000291424CF8DD
:1008E00003401BD1DCF80010DCF800211143C907DC
:1008F00028D11DE0DCF80024DCF80045DCF80056C7
:1009000022432A43D2071DD15CF8032040F61F740E
:100910008968A243114341EA0E010EE0DCF800149D
:10092000DCF80025DCF8006611433143C90709D122
:100930005CF8031040F61F7291434CF8031000213D
:10094000BDE700BF0021BAE7F0B581B000220092F8
:1009500090F85820012A03D10221084601B0F0BDC9
:100960000123076880F85830BB685B0734D4D1E9AD
:1009700000351F26C5F3012407EB8404226B05F024
:100980001F05AE40C3F38463B243AB401A432263F6
:10099000BA68BB6802F0040203F00803D21840F002
:1009A000BC800A6807F114030426C2F34064D1F83E
:1009B00008E006EAD25C53F82440C2F3045507224B
:1009C000AA40BEF1004F24EA02040BD143F80C40C8
:1009D0001A6842F000430DE0C16D41F02001C1658D
:1009E000012167E10EFA05F2224343F80C201A6850
:1009F00022F000437B61D1E90435FC68042B5FD110
:100A00003A6E3A6E0B68C2F3846293FAA3F6C3F3AC
:100A1000846C6FF3DF43B6FA86F5002B2C464FF655
:100A2000FF7E08BF6446A242C0F2070E0CD13A6EA8
:100A300022F000423A660A6802EA0E03C2F3846CAE
:100A400092FAA2F2B2FA82F57A6E7A6E002BC2F3B3
:100A500084622C4608BF6446A2420CD17A6E22F012
:100A600000427A660A6802EA0E03C2F3846C92FAC4
:100A7000A2F2B2FA82F5BA6EBA6E002BC2F38462A9
:100A80002C4608BF6446A2420CD1BA6E22F0004246
:100A9000BA660A6802EA0E03C2F3846C92FAA2F202
:100AA000B2FA82F5FA6EFA6E002BC2F3846208BFC6
:100AB0006546AA4231D1FA6E22F00042FA662CE075
:100AC000062202EA940205FA02FC0E6807F16005AC
:100AD00055F823404FF20002C0F2FF3206F0F8460C
:100AE000224046EA0C06324342F0004245F82320F9
:100AF0000A698B6955F8226026F08076334345F801
:100B000022300A690B7F55F82260012B26F000760F
:100B100008BF06F1007645F82260BA680D68D20772
:100B200050D1CA68D7F8B0602B466FF3DF4326EA8E
:100B3000030C4FF6FF7602F01804C0F20706E640F9
:100B400000242E40C4F27F0446EA0C06A242C7F8F5
:100B5000B06037D193B195FAA5F2B2FA82F20132C0
:100B600002F01E03092B02F01F0310D801229A4045
:100B700003EB430342EA035315E000BF012202EBFB
:100B8000956202F01E030A2B02F01F03EED301222E
:100B900000269A4003EB4303CFF6206606EB03538F
:100BA0001A4342F00073C3F3406607EB86068A6877
:100BB0007569C3F3045307249C40A5439A402A4314
:100BC00072610D680021C8F208010D4271D040F237
:100BD000001CC5F2000C4FF4C161674508BF4FF41B
:100BE0000271B7F1A04F08BF4FF4027151F80C40E9
:100BF0000022CCF22132954204F0E07E04D0102293
:100C0000C9F2C002954241D1220252D440F20062A0
:100C1000C5F20002974202D0B7F1A04F49D15CF86B
:100C2000012022F0E07242EA0E0242F400024CF887
:100C3000012040F20801C2F20001096842F6635245
:100C40008909C0F23E52A1FB0212910901EB410158
:100C50000C2202EB81010091009951B300990139F6
:100C60000091009929B3009901390091009901B3CD
:100C70000099013900910099D9B100990139009189
:100C8000009900294FF00001E8D113E00022CCF2D6
:100C90005272954214D10022B2EB1E6F10D15CF853
:100CA000012022F0E07242EA0E0242F080724CF81B
:100CB00001200021002280F85820084601B0F0BD34
:100CC0000021CCF684318D424FF0000108BF14F4AE
:100CD0008002EFD1B7F1A04F06D06745EAD0674553
:100CE00002D00CF5C06101E00CF500718A6822F0B9
:100CF000E07242EA0E0242F480028A60D9E7000004
:100D000070470000704700007047000070B582B067
:100D100000210028019153D0C16D39B9044600F07B
:100D200021F920460021216684F858100268916854
:100D300089004FF6C071C5F6FF7102D593680B406C
:100D400093609368DB002ED4936801F180511940C1
:100D500041F08051916040F20801C2F2000109683F
:100D600042F663538909C0F23E53A1FB031399096C
:100D7000022303EB410101910199A1B101990139CC
:100D80000191019979B1019901390191019951B10B
:100D9000019901390191019929B101990139019113
:100DA00001990029EAD19168C9000DD4C16D0126CD
:100DB00041F01001C165016E41F00101016604E0DE
:100DC0000126304602B070BD00269368C46D03F062
:100DD000040304F010041B19C36D77D123F481734D
:100DE0000233C3659368DB072AD140F2001442F452
:100DF0008073C5F2000440F2080CA342C5F2000C57
:100E000040F0A280DCF80040DCF800311C43E3072E
:100E100016D10CF1F8034FF4E064D0F804E09A42E4
:100E200008BF4FF44074B2F1A04F08BF4FF44074B4
:100E30005CF8043023F47C1343EA0E034CF80430CE
:100E4000437FC46BD0E9021544EA43332B4390F847
:100E500024501943012D41EA054306D1816A00253A
:100E6000CFF6FE7505EB41410B43C46A24B1016B1B
:100E700004F4787529430B43D16844F20705CFF693
:100E8000F07529401943D1601169436B21F040612D
:100E9000194311619168090743D490F83810037F12
:100EA000490041EA8331D36844F20205AB43194358
:100EB000D160036914698BB144F480311161D2F8B7
:100EC000C01043F6FF75A9430B4310E043F0100236
:100ED0000126C265304602B070BD00BF24F48031E7
:100EE0001161D2F8C01043F6FF7321EA0303C2F880
:100EF000C03090F84010136901290FD140F2FD7104
:100F000023EA010CD0E91135D0E9134143EA0C037F
:100F10002B432343194341F0010301E023F0010374
:100F200013614169136B012923F00F0302D1016A98
:100F300001390B431363C26D012161F30102C265E4
:100F4000304602B070BD00BFDCF800E4DCF80045BC
:100F5000DCF8003644EA0E041C43E3073FF459AFC3
:100F60006EE70000F0B59BB0044600201A90CDE972
:100F70001800CDE9160001A85421FFF73BFA2068BC
:100F800000F130404FEA3020062800F28881DFE887
:100F900010F007009700860186015500D7002D014B
:100FA0004FF4004001904FF00050129001A802F061
:100FB00051F9002818BFFFF7B7FB40F2E815C2F25D
:100FC0000005296841F24C00C4F202004A1C2A6064
:100FD00041B9016841F400510160016801F4005118
:100FE000009100990168002641F00101016000684C
:100FF00016A900F00100009000980120169003202F
:1010000017904FF09040189601F064F80820C4F251
:10101000020045F8080F052080214FF48072C5E9D1
:10102000010605F114004FF480634FF0200C4FF4DB
:10103000005EC5E9036180E80C5025E14FF4803083
:1010400001904FF00040139001A802F003F900282E
:1010500018BFFFF769FB40F2E811C2F200014A68CD
:1010600041F24C00C4F20200531C4B6042B90168CB
:1010700041F480410160016801F4804100910099D0
:101080000168002641F002010160006816A900F025
:10109000020000900098022016900320179040F262
:1010A0000040C4F60000189601F014F80820C4F2BD
:1010B000020040F224652830C2F20005252182E0BA
:1010C0004FF4004001904FF00050129001A802F040
:1010D000C1F8002818BFFFF727FB40F2E811C2F261
:1010E00000010A6841F24C00C4F20200531C0B607C
:1010F00042B9016841F400510160016801F40051F6
:10110000009100990168002641F00101016000682A
:1011100016A900F0010000900098402016900320CE
:1011200017904FF09040189600F0D4FF0820C4F2BA
:10113000020040F2C4551430C2F20005242142E0FE
:101140004FF4803001904FF00040139001A802F05E
:1011500081F8002818BFFFF7E7FA40F2E811C2F261
:1011600000014A6841F24C00C4F20200531C4B607B
:1011700042B9016841F480410160016801F4804195
:10118000009100990168002641F0020101600068A9
:1011900016A900F00200009000984FF480501690BD
:1011A0000320179040F20040C4F60000189600F0AB
:1011B00091FF0820C4F2020040F2846500F58060CF
:1011C000C2F20005262180224FF480734FF4806C18
:1011D0004FF0200E28606960AE60EE602A616B619E
:1011E000C5F818C0C5F81CE04BE000BF4FF48030D4
:1011F00001904FF00040139001A802F02BF8002856
:1012000018BFFFF791FA40F2E810C2F200004168FF
:1012100041F24C05C4F202054A1C426041B92868FB
:1012200040F480402860286800F4804000900098D6
:1012300028684FF4807640F0010028602868002775
:1012400000F00100009000980320179016A94FF0BD
:1012500090401696189700F03DFFA5F5436040F2C8
:10126000E465C2F2000580224FF480634FF0200C49
:10127000272185E88300C5E90372C5E90563C5F840
:101280001CC04FF400502862284600F06FF9002877
:1012900005F1280618BFFFF747FA656534601BB0F3
:1012A000F0BD00002DE9F04140F200160368C5F2E0
:1012B00000064FF4C167B34208BF4FF40277B3F1A1
:1012C000A04F08BF4FF40277BF599D686D0703D444
:1012D00090F85850012D03D10220BDE8F08100BFE5
:1012E00006F5A06407F01F070125A34280F85850B7
:1012F00018BF002F09D0052F07D0092F1FBF0021CD
:1013000080F858100120BDE8F0810D469046044653
:10131000FFF754F930B1002084F858000120BDE8EF
:10132000F08100BF2168E06D40F6017398432246CA
:1013300000F58070B142E06508D040F20050C5F27F
:101340000000814208D106F5407001E04FF0A04056
:10135000884218BF002F03D1D06D20F48010D065D3
:10136000D06D40F2BD47C0044FF0000044BF106E86
:1013700020F006001066506D40F23956C0F60007A6
:10138000C0F6000640F221540023C0F60004C0E974
:101390000B761C2744630F6082F858304B68144664
:1013A00043F010034B60CB682A4643F00103CB6047
:1013B0004031434600F066F921684FF6C0738A68F1
:1013C000C7F6FF731A4004328A60BDE8F08100005E
:1013D000014690F82500022828D180B50868D1E997
:1013E00010CE8A6C036823F00E030360136823F4A5
:1013F00080731360026822F0010202600EF01F0089
:10140000012202FA00F0CCF80400D1E91320506068
:10141000486D30B1026822F480720260D1E9160290
:1014200042600020BDE8804003E000BF0420C863A4
:101430000120012281F82520002281F82420704714
:1014400090F82510022931D180B50168D0E910CE7D
:10145000826C0B6823F00E030B600B6823F0010312
:101460000B60116821F4807111600EF01F020121E0
:1014700001FA02F2CCF80420D0E913325A60426D2E
:1014800032B1136823F480731360D0E916235360DC
:1014900080F82510826B002180F824100AB1904753
:1014A0000021BDE880400846704700BF0421C163A9
:1014B0000121002280F8251080F82420084670477A
:1014C000B0B5D0E910C30268DCF8001003F01F03C8
:1014D0000424D2F800E09C400C4218BF1EF0040522
:1014E00020D102249C400C4218BF1EF0020529D1D5
:1014F000D940090714D51EF0080108BFB0BD116816
:1015000021F00E011160012101FA03F2CCF8042050
:10151000C16380F82510416B002280F8242069B94E
:10152000B0BD00BF1168890603D4116821F0040121
:101530001160CCF80440016B0029F1D0BDE8B04047
:10154000084700BF1168890606D4116821F00A0116
:101550001160012180F82510CCF80440C16A0022F6
:10156000002980F82420E9D1DAE7000000284FF0B4
:10157000010100F085802DE9F04740F2000CC4F233
:10158000020C03684FF6F8320CF5816ECBF6FD7253
:10159000734538BF02F580624CF6CD441A44CCF650
:1015A000CC44A2FB042903F0FC02A2F10802A2FB36
:1015B00004280CF580646FF00305D0E902A60769E2
:1015C0003CBF0024C4F2020405EA9905C0E91045B5
:1015D000022480F825401C6847F6F07224EA0202D3
:1015E000324346693A4387693243C6693A43076AD8
:1015F00032433A4342EA0A021A600CF5026273452A
:1016000038BF0CF50062AB180CF50862C264C8F371
:10161000041201FA02F540F68401BAF5804FC4F2D3
:1016200002018364056505D1002242601A600D60E5
:1016300018E000BF4268D4B2013A032A4FF000021A
:101640001C600D600ED8631E01EB830747F87C2FEA
:1016500003F01F0201239340C1F8C030BC313A4669
:1016600002E000BF00210023C0E915210021012272
:10167000C365C16380F8252080F82410BDE8F047D9
:101680000846704790F824C0BCF1010F47D04FF0D6
:10169000010C80F824C090F825C0BCF1010F3BD1AB
:1016A0002DE9F0414FF0020C80F825C04FF0000CFE
:1016B000C0F83CC0D0F800C000F14C0E9EE83040AD
:1016C000DCF80060BEF1000F26F00106CCF80060E7
:1016D00065601CBFD0E916456560D0E9105601274A
:1016E00006F01F06846807FA06F6D0F830806E60B0
:1016F000CCF804300B46102C04BF13460A46CCF835
:101700000830CCF80C20DCF80010B8F1000F09D03C
:1017100041F00E010EE000BF002180F824100220ED
:10172000704700BF21F00401CCF80010DCF8001075
:1017300041F00A01CCF80010806C0168C90303D5A0
:10174000016841F480710160BEF1000F05D0DEF840
:10175000000040F48070CEF80000DCF8000040F09B
:101760000100CCF800000020BDE8F08110B590F831
:101770005C30013B012B69D800685FEA417ED0F8FC
:1017800058C00CF0010300D01BB311F0380F02D089
:101790001CF002041DD011F4E07F02D01CF0040400
:1017A00017D011F4F05F02D01CF0080411D011F42E
:1017B000604F02D01CF010040BD011F4403F02D057
:1017C0001CF0200405D011F47C0F06D01CF040045E
:1017D00003D1C46D44F00104C465BEF1000F18BF0D
:1017E000002B3BD111F0380F18BF1CF0020335D18C
:1017F00011F4E07F18BF1CF004032FD111F4F05F47
:1018000018BF1CF0080329D111F4604F18BF1CF059
:10181000100323D111F4403F18BF1CF020031DD149
:1018200011F47C0F18BF1CF0400317D10B061BD41A
:10183000CB0504D5D0F8E0301A43C0F8E02000F121
:101840005402002013681943116010BD00F16002BA
:101850000120022113681943116010BDC36D43F0CC
:101860000203C3650B06E3D5D0F8DC301343C0F8A0
:10187000DC30CB05DED4E2E790F85C30022B17D1E8
:101880002DE9F041D0F800E0DEF8C4309B0215D419
:10189000DEF8C430D1E900748E680D69C3F3014CE1
:1018A000A4B145EA0703334343F0804812E000BF88
:1018B000016E41F00801016601207047016E41F49C
:1018C000007101660120BDE8F08100BF45EA874351
:1018D00043EA060801F11407F0CF46EA07663543EC
:1018E000CB682C43456D0CEBCC0644EA034305EB77
:1018F000C60445F836806360CB6883B148F2DE5594
:1019000004F1080303320024C0F60005161956F846
:10191000036C1E51CE680434AE5DB442F6D301218F
:1019200001FA0CF1CEF8CC1081650020BDE8F08101
:1019300090F85C20013A012A14D880B50A68BAB13F
:1019400001F1040E9EE80450D1E90431406C43EAF1
:101950004E7E41EA8C7100EBC20340F832E05960E0
:10196000002080BD016E41F0020101660120704738
:10197000D1E90323D1E901CED206496942EA8E7248
:1019800042EA0342006C114340F82C10002080BD55
:1019900090F85CC0BCF1010F14D180B500689200D2
:1019A000D0F880C0DDF808E042EA011141EA4301C5
:1019B0002CF03F0C41EA0E0141EA0C01C0F8801006
:1019C000002080BD016E41F00401016601207047D6
:1019D00090F85C30013B012B0AD80068012A826D27
:1019E0000CBF22EA0101114381650020704700BF4E
:1019F000016E41F00201016601207047704700004E
:101A000005F0E8BFF0B50068406C00F00702C0F3D5
:101A1000022300F0180CC0F3401EC0F38014C0F382
:101A2000003781E80C5001F11002C0F3C015C0F37B
:101A3000C026F0C2C0F34032C0F38033C0F3064783
:101A40000020C1E908238F62F0BD00002DE9F043BA
:101A500090F85C70022F0FD104684029A44613D17E
:101A60005CF8907F3F071BD0DCF800704FF0480E09
:101A7000FF0113D509251CE0016E41F00801016644
:101A80000120BDE8F08300BF5CF8987F3F0707D0D6
:101A9000DCF800704FF04C0EFF0109D400240DE07B
:101AA000016E41F4807101660120BDE8F08300BF42
:101AB0000825D4F88040EC4004F00104DCF8007004
:101AC000C7F3012707EB040C50F80E700CEBCC06A3
:101AD00057F8365007EBC60E15F08045556057F89D
:101AE000365025F0604408BFC5F38A44146057F8A7
:101AF000365005F00055956057F8364004F0004424
:101B00001461BEF80440D461BEF8064014F00F041E
:101B1000D460DEF8044004F480145461DEF804401C
:101B200004F4001494619EF8074004F07F041462EA
:101B3000DEF804404FEAD474546228D048F2DE58EC
:101B40000024C0F6000800BF0EEB0406377A651CBF
:101B50001F55D76818F80770BD4218D2757A1F193B
:101B60007D70D56818F80590A51C4D450FD2B57A43
:101B7000BD70D56818F80590E51C4D4507D2F57A7B
:101B80000434FD70D56818F80550AC42DCD3006809
:101B900040290CBFC0F894C0C0F89CC00020BDE82C
:101BA000F0830000704700002DE9F04F85B0044637
:101BB0000068016D426DD0F850B0456D076D466DFF
:101BC000036D01EA02080493436D0393036D0293CE
:101BD000436D0193D0F854A0D0F850905FEA496368
:101BE00007D51AF0400104D0402101652046FFF7D7
:101BF000D9FF0BEA050B5FEAC95008F4E0550ED592
:101C00001AF480700BD02068D0F8D810D0F8E020FB
:101C100011404FF480720265204600F053FA3740BD
:101C20000BF007062DB1206829460565204600F017
:101C30004DFA07F038052EB120683146066520467A
:101C400000F0FAF92DB1206829460565204600F01C
:101C50001DFA5FEA895009D51AF4007006D0206891
:101C60004FF400710165204600F032FA5FEA096026
:101C70000DD51AF080000AD02068D0F8D410D0F822
:101C8000DC20114080220265204600F01DFA5FEA48
:101C9000894009D51AF4005006D020684FF400514D
:101CA0000165204600F00CFA5FEA0940DDE9011009
:101CB00000EA010509D51AF4004006D020684FF467
:101CC00000410165204600F0F9F9DDE90310084004
:101CD0005FEA494105F460210AD51AF4804207D031
:101CE00022684FF480431365226E42F08002226620
:101CF00000F4710521B1206801652046FFF780FEE0
:101D000025B120680565206E28432066206E28B125
:101D1000204605B0BDE8F04FFFF770BE05B0BDE846
:101D2000F08F0000002804BF01207047F0B581B09B
:101D3000044690F85C0028B9002084F85D00204635
:101D400000F024F92068816921F01001816100F020
:101D50009BFA054620688169090705D500F094FAC9
:101D6000401B0B28F6D310E0816941F0010181612D
:101D700000F08AFA054600BF20688169C9070FD1C3
:101D800000F082FA401B0B28F6D3206E032140F0AE
:101D900001002066012084F85C1001B0F0BD00BF96
:101DA000826946F2004CC4F2000C42F00202604527
:101DB000826102D16268CCF80021227C8369012A09
:101DC00023F0400318BF40338361627C8369012A9A
:101DD00023F4804308BF03F580438361A27C8369B9
:101DE000012A23F4805318BF03F58053836185696A
:101DF000D4E902E325F4407545EA0E05856185695D
:101E000025F0A4058561056925F0100505619BB1E4
:101E1000012B0DD0022B09D08569032B45F08005DD
:101E20008561056945F01005056105D1202300E0B5
:101E3000042385692B43836104F114052ACD226AAA
:101E40006FF0FF075E1E07EB052545EA4665013A80
:101E50002A430025CFF6FF7505EB01411143BEF57E
:101E6000407FC16110D104F1240646CE236B013AB4
:101E700007EB06273A436FF00F0707EB03131A43EC
:101E800005EB01411143C160D4E90D13E26BD0F8B9
:101E9000C0704AF250763A43C0F8C0200CF5806713
:101EA0000CF58042B84204BF4AF25072C4F20002FC
:101EB0000CF50067C4F20006B84208BF06F554727C
:101EC0002264D0F8807027F4F81747EA0141C0F87F
:101ED000801002F170016164D0F8801021F070610F
:101EE00041EA0361C0F8801002F1B000A06402F57D
:101EF000C470E06402F51870206502F51E7060651C
:101F000002F55470002100BFC2E90011C2E90211BC
:101F1000C2E90411C2E90611C2E90811C2E90A11B5
:101F2000C2E90C11C2E90E11C2E91011C2E9121185
:101F3000C2E91411C2E91611C2E91811C2E91A1155
:101F4000C2E91C11C2E91E11C2E92011C2E9221125
:101F5000C2E92411C2E92611C2E92811C2E92A11F5
:101F6000C2E92C11C2E92E11C2E93011C2E93211C5
:101F7000C2F8D010D4328242C6D300200121A0651D
:101F8000206684F85C1001B0F0BD000010B59CB074
:101F9000044600201B90CDE91900CDE9170002A8E6
:101FA00004305021FEF726FA206846F60001C4F2FC
:101FB0000001884202D01CB010BD00BF4FF4805019
:101FC00002904FF00070109002A801F043F9002831
:101FD00018BFFEF7A9FB41F24C00C4F20200C16831
:101FE00041F00071C160C16801F000710191019977
:101FF000016841F002010160006817A900F00200C9
:102000000190019860201790022018900020CDE9DF
:10201000190009201B9040F20040C4F6000000F0B7
:1020200059F856200121002201F046F8562001F00F
:1020300031F81CB010BD000010B582B040F274241D
:102040000021C2F20004CDE900116B464021224676
:10205000FFF7FCFC206840F21111884214D1BDF852
:102060000000B2EE041A00BA000C00EE100AB8EE3E
:10207000400A80EE010A40F25024C2F2000484EDCE
:10208000000A00F001F9A06102B010BD7047000025
:1020900090F85C1001290BD1022180F85C100168D6
:1020A0008A6922F001028A610021016600207047DE
:1020B000016E41F004010166012070477047000085
:1020C0007047000070470000704700007047000034
:1020D000704700002DE9F04F83B00E68002E00F02D
:1020E000CF8000F1200241F2004C009200F138470D
:1020F000C4F6000C06224FEAB725604508BF05224A
:10210000052D38BF4FEAB722002500274FF0000801
:1021100001920AE00E6808F1010836FA08F207F1A8
:10212000020705F1040500F0AB80012202FA08FE67
:1021300016EA0E09EED0D1F804C003220CF0030B0E
:10214000ABF1010602FA07F4012E6FEA040A11D876
:102150008468CE6804EA0A04BE403443846044685C
:1021600024EA0E06CCF3001404FA08F42643466071
:1021700006E000BFBBF1030F02D14FF0030B21E0DB
:10218000C6688C6806EA0A06BC402643BBF1020F0B
:10219000C66017D16FF00302009B02EA580605F0F3
:1021A0001C020F2453F806C004FA02FE0C692CEA44
:1021B0000E0C04FA02F242EA0C029A51D1F804C061
:1021C0000CF0030B02680BFA07F302EA0A021A4347
:1021D0001CF4403F02609DD041F26003C4F2020350
:1021E0001A6840F2004E42F001021A601A68C4F206
:1021F000010E02F001020292029A28F003024FF649
:10220000084C7244CFF6FF7C52F80C3005F00C06F7
:102210000F24B440A343019C04FA06F6334342F86A
:102220000C30DEF808204B6842EA090640F20C4CFC
:10223000DC0258BF22EA0906CEF80860C4F2010C9D
:10224000DCF800209C0242EA090658BF22EA09068F
:10225000CCF80060DEF804209C0342EA090658BF6F
:1022600022EA0906CEF80460DEF80020DB0342EA29
:10227000090658BF22EA0906CEF800604AE700BF07
:1022800003B0BDE8F08F000040F67030C2F20000ED
:102290000068704790F8DD30022B03D14FF0020C3C
:1022A0006046704790F8DC304FF0020C012B01D1F2
:1022B0006046704701237F2980F8DC3080F8DDC05C
:1022C00000F32C8001393F2900F28080DFE801F023
:1022D000204C7E467E7E7E3A7E7E7E7E7E7E7E5256
:1022E0007E7E7E7E7E7E7E7E7E7E7E7E7E7E7E404C
:1022F0007E7E7E7E7E7E7E7E7E7E7E7E7E7E7E7EFE
:102300007E7E7E7E7E7E7E7E7E7E7E7E7E7E7E3437
:102310000168D1F8003462F3040330E0802939D039
:10232000B1F5807F3CD0B1F5007F4FD10168D1F885
:10233000043462F31C6338E00168D1F8043462F3BA
:102340008A1332E00168D1F8003462F3964316E054
:102350000168D1F8043462F3040326E00168D1F87F
:10236000003462F310330AE00168D1F8003462F3FC
:102370008A1304E00168D1F8003462F31C63C1F8E9
:10238000003490F8DD104FF0010C07293FF490AFB6
:1023900014E000BF0168D1F8043462F3103304E0A4
:1023A0000168D1F8043462F39643C1F8043490F81C
:1023B000DD104FF0010C07293FF47AAF80F8DDC043
:1023C0004FF0000C80F8DCC060467047072180F8B1
:1023D000DD10002180F8DC1090F8DD104FF0010CCA
:1023E00007293FF465AFE9E790F8DD30022B03D110
:1023F00002231846704700BF90F8DC30012B4FF0E5
:10240000020301D118467047B0B5012480F8DC40C2
:1024100080F8DD3003687F29D3F880C3D3F8FCE36C
:1024200000F352804C1E3F2C00F21481DFE814F0C0
:102430004000B8001201AC00120112011201880024
:102440001201120112011201120112011201C40043
:1024500012011201120112011201120112011201E4
:102460001201120112011201120112011201940053
:1024700012011201120112011201120112011201C4
:1024800012011201120112011201120112011201B4
:1024900012011201120112011201120112011201A4
:1024A0001201120112011201120112011201700037
:1024B0005488526864F3124CC3F8BC2390F8DD20B2
:1024C000072A00F0C180CFE0802900F08F80B1F5AD
:1024D000807F00F0A380B1F5007F40F0BB8054887E
:1024E000D3F8F85364F3165E25F0F844C3F8F843C4
:1024F0005268D3F8F84302F01F0244EA8262C3F83C
:10250000F82390F8DD20072A00F09E80ACE000BFA1
:102510005488D3F8F85364F30A2E25F4F844C3F82A
:10252000F8435268D3F8F84302F01F0244EA8222CB
:10253000C3F8F82390F8DD20072A00F0858093E0A7
:102540005488526864F35B6CC3F8C82390F8DD20AC
:10255000072A79D088E000BF5488D3F8F85364F391
:10256000061E25F47874C3F8F8435268D3F8F8438C
:1025700002F01F0244EA4212C3F8F82390F8DD206B
:10258000072A61D070E000BF5488526864F3985CF9
:10259000C3F8C42390F8DD20072A55D064E000BFBB
:1025A0005488526864F3D54CC3F8C02390F8DD20FA
:1025B000072A49D058E000BF4FEADE05B2F802E032
:1025C000D3F8F84365F3DF0E24F01F04C3F8F84393
:1025D0005268D3F8F84302F01F022243C3F8F823ED
:1025E00090F8DD20072A2FD03EE000BF5488D3F8B2
:1025F000F85364F30E3E25F4F814C3F8F843526818
:10260000D3F8F84302F01F0244EA0242C3F8F82369
:1026100090F8DD20072A17D026E000BF5488D3F8B1
:10262000F85364F3124E25F07874C3F8F8435268F7
:10263000D3F8F84302F01F0244EA4252C3F8F823E9
:1026400090F8DD20072A0FD10123BDE8B0401846DD
:10265000704700BF072280F8DD20002280F8DC20D0
:1026600090F8DD20072AEFD00F298CBFC3F8FCE3D8
:10267000C3F880C30121002380F8DD1080F8DC302E
:10268000BDE8B0401846704790F8DC20012A4FF0B2
:10269000020221D0012380F8DC3080F8DD200268BE
:1026A0004B1CD2F8CCC309D04CF00203C2F8CC3397
:1026B000D2F8CC3323F00C03194301E02CF00201D3
:1026C000C2F8CC13D2F8CC1341F00101C2F8CC13FC
:1026D0000121002280F8DD101046704790F8DD30AF
:1026E000022B04BF0220704790F8DC30012B4FF022
:1026F00002033DD070B580F8DD30D2E900C3D2E9E5
:1027000002E60CF4E0546FF35F23156923440EF4E2
:102710000074234405F480452B4406F400463344FA
:1027200056690025C0F2FF1505EA0646956933444F
:1027300005F00076156A334405F08046D2693343CC
:10274000066802F0004206EBC1111A43D1F8B83016
:1027500042F20006C3F6004633401A43C1F8B820DF
:102760000121002380F8DD1080F8DC30BDE87040E6
:1027700018467047002804BF0120704710B582B08A
:102780000446022084F8DD00207AC0074FF00000E4
:10279000C4E93800C4E93A00C4E93C00C4F8F800D0
:1027A0001FD0206846F60001C4F2010188420CD116
:1027B00041F26001C4F202010A6842F080620A60DC
:1027C000096801F08061019101990168D4E904234D
:1027D00021F4704102F44042114403F44052114488
:1027E0000160204600F03EF8207A800706D5206878
:1027F000E1680268090A61F309220260012084F895
:10280000DD00002084F8DC00C4F8D800C4E906002C
:10281000C4E90800A062C4E90C00C4E90E00C4E9E0
:102820001000C4E91300C4E91500C4E91700C4E9A5
:102830001A00C4E91C00C4E91E00C4E92100C4E96F
:102840002300C4E92500C4E92800C4E92A00C4E93A
:102850002C00C4E92F00C4E93100C4E9330002B000
:1028600010BD0000006846F60001C4F20101884274
:1028700018BF704781B041F26000C4F202000168E5
:1028800041F080610160006800F080600090009875
:1028900001B0704770B50D460446FFF7F5FC21689E
:1028A000D1F88823D20314D455B30646681C1CD132
:1028B000D1F88803C0030CD4D1F88803C0035CBFEF
:1028C000D1F888035FEAC03003D4D1F88803C0038D
:1028D000EED5012084F8DD00002084F8DC0070BD16
:1028E0002068D0F88803C003F3D4FFF7CDFC801B29
:1028F000A842F5D9072084F8DD00032070BD00BF91
:10290000FFF7C2FC072084F8DD00032070BD000043
:1029100090F8DD30022B4FF0020331D010B580F873
:10292000DD300368062911D11968D2E900CED2E959
:10293000024221F01F0124F01804214311431960C1
:10294000C3F814C0C3F818E014E000BF03EBC111D2
:10295000D1F88030D2E900ECD2E9024223F01F0323
:1029600024F0180423431A43C1F88020C1F894E0EE
:10297000C1F898C00121002380F8DD10BDE81040A7
:102980001846704790F8DDC0BCF1020F04D14FF03B
:10299000020C6046704700BF90F8DCC0BCF1010F2C
:1029A0004FF0020C02D16046704700BFB0B54FF047
:1029B000010E062980F8DCE080F8DDC016D1511E3A
:1029C000072900F293800FF20602DFE801F0053DCF
:1029D0008F298F8F8F6300BF19680268D16190F8CB
:1029E000DD10072900F08C80A7E000BFA2F1010CE8
:1029F000BCF1070F00F28A800FF20402DFE80CF04E
:102A0000042C86188686865202681B6802EBC11168
:102A1000C1F89C3090F8DD10072900F081808CE02F
:102A200019680268916290F8DD10072968D084E087
:102A300002681B6802EBC111C1F8A83090F8DD10E4
:102A400007296DD079E000BF19680268516290F8DB
:102A5000DD10072954D070E00268D3E9004E8032BF
:102A600002EBC11CC901CCF824405458BEF1000F40
:102A700024F4405454504FD0DCF80010BEF5405FB1
:102A800041EA0E01CCF8001050D0BEF5005F24D012
:102A900042E000BF19680268D16290F8DD10072992
:102AA0002ED04AE00268D3E900E502F1800404EB8D
:102AB000C11CC901CCF82CE0625822F4404262509B
:102AC00055B3DCF80010B5F5405F41EA8501CCF85C
:102AD00000102BD0B5F5005F1ED19968CCF81C1002
:102AE00090F8DD1007291BD027E000BF072180F8F0
:102AF000DD10002180F8DC1090F8DD1007291CD1D2
:102B00004FF0010CBDE8B04060467047072180F8E7
:102B1000DD10002180F8DC1090F8DD1007290CD1C1
:102B20004FF0010CBDE8B040604670479968CCF8A2
:102B3000281090F8DD100729F2D001214FF0000C89
:102B400080F8DD1080F8DCC0BDE8B040604670471A
:102B500090F8DC20012A4FF002020BD080F8DD2033
:102B600002681368194311600121002280F8DD100A
:102B700080F8DC2010467047B0B590F8DD40022C9C
:102B800004BF0220B0BD90F8DC404FF0020C012CD5
:102B90000DD0012580F8DC5080F8DDC0044602F03D
:102BA0004DFA4FF0000C84F8DD5084F8DCC060462C
:102BB000B0BD000090F8DC20012A4FF002020DD0D9
:102BC00080F8DD200268D2F894331943C2F89413D8
:102BD0000121002280F8DD1080F8DC2010467047CB
:102BE00090F8DC20012A4FF002020DD080F8DD20A1
:102BF0000268D2F898331943C2F8981301210022D1
:102C000080F8DD1080F8DC201046704790F8DD3049
:102C1000022B04BF0220704790F8DC30012B4FF0EC
:102C2000020300F049812DE9F04F8EB080F8DD30CD
:102C30000368062944D11F68D3F8A013566927F00A
:102C4000E00726F0C005202E47EA050740F09480F3
:102C500047F020074FF2FF36C3F2FF16D569374021
:102C600006F500662E40156A374325F06E46556A14
:102C7000374325F06846956A374325F06046D56AA4
:102C8000374347EA8507566B27F000573743166BE3
:102C900021F4803131431F60C3F8A013D2E900173B
:102CA000D2E90265C0E932171169C0F8D060C0E905
:102CB0003551D3F8841341F00101C3F88413F2E0D5
:102CC00003F18007CE01BD5907EBC11C25F070450B
:102CD000BD51BD59674657F8686F25F02005CDE90D
:102CE0000A67674657F864AF0D97D3F8A073566923
:102CF0000C97202E46EA05094CD129F4D07505F130
:102D00002009D769D2E90EE40197176A0594029762
:102D1000D2E90967146C0397D76A07940997576B30
:102D2000956D0497D2E91147089547F48055B5F59C
:102D3000F05F156D06952AF4807544EA050A02D104
:102D4000BEF1400F03D12AF4F05444EA070AD2F846
:102D50004CB0546D0529009428D860A454F8214043
:102D6000176B35460C9E01F1010834402E4607FAD8
:102D700008F545EA04081BE09669042E00F0A680D9
:102D8000032E00F09B80022E3FF462AF27F0E00795
:102D900060E700BF9569042D00F09C80032D00F0D2
:102DA0009180022DA9D029F4D079AAE7DDF83080EE
:102DB0004FF2FF34C0F2FF14019F09EA040504F545
:102DC00000643C402C43029DDDF82490ADB22C43BE
:102DD0004FF6BF75C0F200652E403443039E05F1E7
:102DE000006535402C434FF6BF7544EA0904CFF621
:102DF00000652C40049D0A9EB5F1005F4FF6C0753A
:102E0000C7F6FF7505EA0605059E08BF04F5003400
:102E100006F03F063544079E052945EA06054FF6AC
:102E2000FF76CFF602660EEA060747EA0407089C1B
:102E300006F5802606EA040647EA0607069E47EAE4
:102E40000607CCF800700B9F3D602AF480470D9E6A
:102E500047EA0B073760009FCCF85470C3F8A08393
:102E6000C1EBC107D2E9006500EB87073E629668B7
:102E70007D62D568C7E90A6516693E6307D81DA754
:102E800057F82110D3F884733943C3F88413B9F188
:102E9000000F08D1DCF80010D26D21F4007141EA76
:102EA0004221CCF800100121002380F8DD1080F8C9
:102EB000DC300EB0BDE8F04F1846704747F04007D1
:102EC000C8E600BF012565F3C8191AE747F0800777
:102ED000C0E600BF022565F3C81912E7FFFFFDFF3A
:102EE000FFFFFBFFFFFFF7FFFFFFEFFFFFFFDFFF2E
:102EF000FFFFBFFF02000000040000000800000008
:102F000010000000200000004000000090F8DD30BC
:102F1000022B04BF0220704790F8DC30012B4FF0E9
:102F200002033ED02DE9F04180F8DD30D0F800C03A
:102F30004FF6EF740CEBC11E5EF8EC3FCFF6EC746D
:102F400092E8600123400134D76804EA0514234362
:102F500026F44034234327F4003495692343012D9C
:102F600043EA080309D1D2E9042423F0060322F03E
:102F700002021A43224342F001030629CEF8003030
:102F800007D809A252F82110DCF884231143CCF8A9
:102F900084130121002380F8DD1080F8DC30BDE8C7
:102FA000F0411846704700BF020000000400000016
:102FB0000800000010000000200000004000000099
:102FC0000100000040F2000040F67031C2F2000043
:102FD000C2F2000140680A681044086070470000AF
:102FE00080B5032000F094F80F2000F009F80028C5
:102FF0001CBF012080BD00F02BF8002080BD000028
:10300000B0B540F20005C2F200056968F1B10446AE
:1030100040F20800C2F200004FF47A720068B2FB7E
:10302000F1F1B0FBF1F000F0EBFE01460F2C4FF098
:1030300001000AD8002918BFB0BD4FF0FF3021466B
:10304000002200F039F800202C60B0BD0120B0BD96
:1030500080B582B041F25800C4F20200816841F0AC
:1030600001018160816801F001010191019901680C
:1030700041F080510160006800F08050009000989D
:10308000022000F0B3FE00F0A9FE02B0BDE88040CF
:1030900000F0D6B8002848BF704700F01F01012299
:1030A00002FA01F11C2202EAD0004EF20012CEF226
:1030B000000281507047000010B54EF60C5CCEF255
:1030C000000CDCF80030C3F3022E8EF00704042C51
:1030D00028BF0424BEF103034FF0FF3E0EFA04F4B0
:1030E00038BF0023A14399400EFA03F39A431143DA
:1030F00000F00F0200F160430901043A03F5644354
:103100006244002848BF02F10C03197010BD000092
:103110004EF60C51CEF200010A684FF6FF031A403A
:1031200060F30A2242F0806040F0FD700860704752
:1031300047F21401C4F2000151F8142CB0F5007FDD
:103140003CD0002874D1C86E02F4C06220F48070B4
:10315000B2F5806FC8662FD151F8140C012262F3CA
:103160004A2041F8140C40F20800C2F20000006846
:10317000322250434DF68362C4F21B32A0FB02029E
:10318000900C00BF0A68520511D5421C0FD00A6886
:1031900052050CD558B10A68520508D5012806D049
:1031A0000A68520503D50228A0F10400EAD1086894
:1031B000400544BF0320704700207047C86E02F4EA
:1031C000C06240F48070B2F5806FC866F4D151F8E7
:1031D000140C012262F34A2041F8140C40F208005A
:1031E000C2F200000068322250434DF68362C4F2FE
:1031F0001B32A0FB0202900C0A68520511D5421C3A
:103200000FD00A6852050CD558B10A68520508D586
:10321000012806D00A68520503D50228A0F104004F
:10322000EAD10868400544BF03207047C4E700BFE7
:10323000022060F34A2241F8142C0020704700005D
:1032400047F20800C4F20000016841F480410160C7
:10325000704700002DE9F04182B00446807841F2C9
:1032600088060007C4F2020602D400202FE000BF47
:1032700056F8300C5FEAC0080BD456F8300C40F01A
:10328000805046F8300C56F8300C00F08050019019
:10329000019847F20007C4F20007386840F48070D4
:1032A0003860FEF7F1FF05463868C00500F10C8173
:1032B000FEF7EAFF401B0228F6D90320B8F1000F01
:1032C00005D456F8301C21F0805146F8301C216896
:1032D000CA0717D18A071DD44A0723D40A0729D45D
:1032E000CA062FD48A0635D44A063BD40A0641D4EE
:1032F000CA0547D48A034DD48A0553D44A0559D404
:1033000067E000BF3268636822F003021A4332604C
:103310008A07E1D53268A36822F00C021A433260B2
:103320004A07DBD53268E36822F030021A43326084
:103330000A07D5D53268236922F0C0021A433260E9
:10334000CA06CFD53268636922F440721A433260EC
:103350008A06C9D53268A36922F440621A433260F2
:103360004A06C3D53268E36922F440521A433260F8
:103370000A06BDD53268236A22F440421A433260FD
:10338000CA05B7D53268636A22F440321A43326004
:103390008A03B1D57269A36A22F003021A437261EB
:1033A0008A05ABD53268E36A22F440221A433260C0
:1033B0004A050ED53268236B22F440121A43B3F546
:1033C000801F326005D156F87C2C42F4801246F8FA
:1033D0007C2C0A050ED53268636B22F440021A4336
:1033E000B3F5800F326005D156F87C2C42F4801280
:1033F00046F87C2CCA040ED53268A36B22F04072CA
:103400001A43B3F1807F326005D156F87C2C42F428
:10341000801246F87C2C8A040ED53268E36B22F0C9
:1034200040621A43B3F1006F326005D156F87C2C2C
:1034300042F4801246F87C2C4A040ED53268236C84
:1034400022F040621A43B3F1006F326005D156F8A2
:103450007C2C42F4801246F87C2C0A040ED532688B
:10346000636C22F040521A43B3F1805F326005D1A1
:1034700056F87C2C42F4803246F87C2CCA030ED5D8
:103480003268A36C22F040421A43B3F1804F32609D
:1034900005D156F87C2C42F4803246F87C2C490346
:1034A0000ED57169E26C21F440111143B2F5001F91
:1034B000716105D156F87C1C41F4801146F87C1CE2
:1034C00002B0BDE8F08100BFB06810F4407010D0C9
:1034D000216D88420BD0B068B16820F4407041F48F
:1034E0008031B160B16821F48031B160B060C00753
:1034F0000CD1B068216D20F440700843B06000200A
:10350000B8F1000F3FF5E3AEDBE600BFFEF7BCFE0F
:10351000054641F2883700BFB0688007E9D4FEF75E
:10352000B3FE401BB842F7D9C7E600002DE9F047CB
:10353000002863D042F2000AC4F2020A0446DAF814
:1035400000000D4600F00F0081420CD9DAF80000AF
:1035500020F00F002843CAF80000DAF8000000F05D
:103560000F00A8424AD1216841F20808C807C4F2F6
:10357000020803D1880740F1D080B5E0606858F8B0
:10358000082C022838D003283CD1920136D5D8F82F
:103590000420D8F8043042F20046C3F3031302F0CB
:1035A0000302D8F804700133C0F2F406032A04BF02
:1035B00041F20026C0F27A06B6FBF3F2D8F80430E6
:1035C000C7F306277A43C3F34163022707EB43039C
:1035D000B2FBF3F24BF20043C0F2C4439A4259D912
:1035E000D8F8002012F0F00F49D0890752D5A16811
:1035F00000294FD143E000BF910305D40120BDE86D
:10360000F08700BF5105F9D5D8F8001001F00C0182
:1036100004293FD0D8F8001001F00C01082939D056
:10362000D8F8001001F00C010C2933D1D8F804109F
:10363000D8F8042042F20047C2F3031201F003015C
:10364000D8F804300132C0F2F407032904BF41F274
:103650000027C0F27A07B7FBF2F1D8F80420C3F3D1
:1036600006235943C2F34162022303EB4202B1FB3A
:10367000F2F14BF20042C0F2C44291420AD9D8F8AA
:103680000010082262F307114FF00109C8F800107A
:1036900002E000BF4FF00009D8F8001021F003014C
:1036A0000843C8F80000FEF7EFFD064641F28837F0
:1036B000D8F80000616800F00C00B0EB810F07D073
:1036C000FEF7E2FD801BB842F2D90320BDE8F08787
:1036D0002168880708D4B9F1000F1ED0D8F800007F
:1036E00020F0F00017E000BF480705D5D8F800002B
:1036F00040F4E060C8F80000080706D5D8F80000DC
:10370000072262F30D20C8F80000D8F80000A26874
:1037100020F0F0001043C8F80000DAF8000000F0D4
:103720000F0085421BD2DAF8000020F00F0028437A
:10373000CAF80000FEF7A8FD064641F2883700BF30
:10374000DAF8000000F00F00A84207D0FEF79CFD59
:10375000801BB842F4D90320BDE8F08721684807F0
:1037600007D5D8F80000E26820F4E0601043C8F8FC
:103770000000080708D5D8F80000216920F460503F
:1037800040EAC100C8F80000D8F8000042F2004149
:10379000C0F2F40100F00C00042808462DD0D8F83F
:1037A000000000F00C00082841F20020C0F27A006E
:1037B00023D0D8F8002002F00C020C2A1CD1D8F833
:1037C0000420D8F8043002F00302C3F30313D8F83E
:1037D00004700133032A08BF0146B1FBF3F0D8F8A7
:1037E0000410C7F30627C1F341610222784302EBBC
:1037F0004101B0FBF1F000E00020D8F8001048F2E1
:10380000AE52C1F30311C0F60002515C40F208024F
:1038100001F01F0120FA01F140F20000C2F20000A5
:103820000068C2F200021160BDE8F047FFF7E8BB94
:1038300040F2080041F20801C2F20000C4F20201A5
:103840000068096848F2BE52C1F30221C0F60002C6
:10385000515C01F01F01C8407047000040F20800B1
:1038600041F20801C2F20000C4F2020100680968D6
:1038700048F2BE52C1F3C221C0F60002515C01F011
:103880001F01C8407047000041F20C01C4F2020160
:1038900051F8040C42F20042C0F2F40200F00C00B5
:1038A0000428104608BF704751F8040C00F00C00C3
:1038B000082841F20020C0F27A0025D051F8043CDB
:1038C00003F00C030C2B1CBF0020704780B5D1F80F
:1038D00000C00B680CF0030CC3F3031E0B680EF161
:1038E000010EBCF1030F08BF02460968B2FBFEF0EF
:1038F000C3F30623C1F341610222584302EB4101A5
:10390000B0FBF1F0BDE8804070470000002804BF24
:10391000012070472DE9F04182B00446007841F261
:103920000006C007C4F202061ED1207880073DD4ED
:103930002078000764D42078400700F18780207841
:10394000800600F1D980E569002D00F04282B06860
:1039500000F00C000C2840F03181012D40F08E81E8
:10396000012002B0BDE8F081B06800F00C01F06801
:10397000082961D0032281F00C0122EA00000844EA
:10398000B0FA80F0400957D161683068B1F5803FE6
:1039900007D0B1F5A02F40F0E38040F480203060E4
:1039A000306840F480303060E4E000BFB068F16817
:1039B00000F00C00042871D001F0030180F00C002D
:1039C00081F002010844B0FA80F0400966D1E16854
:1039D0003068002900F0E08040F480703060FEF72D
:1039E00053FC05463068400500F10A81FEF74CFCA7
:1039F000401B0228F6D9032002B0BDE8F08100BFC9
:103A00006169D6F89400002900F0948040F001002C
:103A1000C6F89400FEF738FC054600BFD6F89400BF
:103A200080073FF588AFFEF72FFC401B0228F5D931
:103A3000032002B0BDE8F081306880037FF575AFE8
:103A4000606800287FF471AF3EE000BFB06D5FEAB0
:103A5000C00808D4B06D40F08050B065B06D00F083
:103A600080500190019847F20007C4F200073868BF
:103A7000C0052DD4386840F480703860FEF704FC2F
:103A8000054600BF3868C00522D4FEF7FDFB401B89
:103A90000228F7D9032002B0BDE8F0813068400564
:103AA00001D5E06880B17068216920F0FE4040EAED
:103AB0000160706040F20000C2F200000068FFF791
:103AC0009FFA00283FF434AF012002B0BDE8F08136
:103AD000A168D6F89000012908D0052940F0AE80F1
:103AE00040F00400C6F89000D6F8900040F00100C5
:103AF000C6F89000AEE000BFA169D6F89800002992
:103B000000F0868040F00100C6F89800FEF7BCFB8C
:103B1000054600BFD6F8980080073FF514AFFEF7C2
:103B2000B3FB401B02284FF00300F3D902B0BDE8FD
:103B3000F08100BF20F00100C6F89400FEF7A4FB5E
:103B4000054600BFD6F8940080077FF5F4AEFEF777
:103B50009BFB401B0228F5D9032002B0BDE8F08191
:103B600020F4803030603068002920F480203060FC
:103B700000F0BE80FEF788FB054600BF306880037A
:103B80003FF5D3AEFEF780FB401B6428F6D9032037
:103B900002B0BDE8F08100BF20F480703060FEF715
:103BA00073FB0546306840057FF5C2AEFEF76CFB3F
:103BB000401B02284FF00300F4D9B7E7306820F02B
:103BC00080703060FEF760FB022D05460CD100BF0F
:103BD0003068800140F1B880FEF756FB401B022898
:103BE0004FF00300F4D9A1E73068800140F1EA808A
:103BF000FEF74AFB401B02284FF00300F4D995E77B
:103C00007068216920F0FE4040EA016070608FE634
:103C100020F00100C6F89800FEF736FB054600BF0D
:103C2000D6F8980080077FF58EAEFEF72DFB401B7F
:103C300002284FF00300F3D978E700BF20F001001D
:103C4000C6F89000D6F89000002920F00400C6F8CD
:103C500090005DD0FEF718FB054641F2883700BFA3
:103C6000D6F89000800765D4FEF70EFB401BB842E3
:103C7000F6D9032002B0BDE8F08100BFF068216AE8
:103C800000F003028A427FF41FAF626A6FF00F03F5
:103C900000F0F00103EB021291427FF415AFA16A2C
:103CA00000F4FE42B2EB012F7FF40EAFE16A00F0A8
:103CB0007842B2EBC16F7FF407AF226B0023CFF6DF
:103CC000E07303EA025200F4C001A2F5001291422F
:103CD0007FF4FAAE616B4FF07E4202EA016100F0C0
:103CE000C06001F17E4188427FF4EEAE71E000BF1A
:103CF000FEF7CAFA054600BF306880037FF515AEAF
:103D0000FEF7C2FA401B64284FF00300F4D90DE718
:103D1000FEF7BAFA054641F2883700BFD6F89000A0
:103D2000800707D5FEF7B0FA401BB8424FF00300FA
:103D3000F4D9FBE6B8F1000F3FF501AEB06D20F00D
:103D40008050B065FBE500BFF06848F20C01C0F29E
:103D50009F1104F1200700EA010C8ECF6FF00F00D5
:103D6000D4E90C5400EB02100022CFF6E07241EAD5
:103D70000C0102EA05520843A2F500124FF07E45FD
:103D800040EA032005EA0465104305F17E4540EA58
:103D9000C7602843F060306840F080703060F068A1
:103DA00040F08070F060FEF76FFA044630688001E2
:103DB0000FD4FEF769FA001B02284FF00300F5D973
:103DC000B4E600BFF0684FF6FC71CFF6EE61084034
:103DD000F060002002B0BDE8F08100003020C4F2A5
:103DE0000100016821F00101016070473021C4F237
:103DF00001010A6822F002021043086070470000C7
:103E0000411E0020B0EB116F1CBF012070474EF225
:103E10001002CEF2000251604EF62351CEF20001A4
:103E2000F0230B700721906011607047704700000D
:103E300070470000704700007047000070470000A6
:103E40007047000090F83C20012A4FF0020266D033
:103E500070B580F83D20026842F6004C54689368C3
:103E6000C4F2010C45F2000E6245C4F2010E18BF07
:103E700072452BD14D6824F470042C434FF68F7596
:103E8000CFF6FF550E682C4042F6FF35C4F201050F
:103E90003443AA4254600DDC40F2FF76C4F20006BF
:103EA000B2421BDCB2F1804F2CD040F20046C4F28B
:103EB000000625E043F6FF74C4F20104A24219DCB7
:103EC00062451FD043F2004618E000BF43F20045B0
:103ED000C4F20105AA42CDD0D0E700BF40F60006EB
:103EE000C4F20006B2420DD040F60046C4F200060D
:103EF00006E000BF724505D044F20006C4F2010698
:103F0000B24204D1896823F08003194391600121F2
:103F1000002280F83D1080F83C20BDE8704010463B
:103F20007047000070470000002804BF0120704760
:103F300010B5044690F83D0028B9002084F83C00F4
:103F4000204600F023F8022084F83D002068211D5F
:103F500001F096FE012084F8480084F83E0084F8C1
:103F60003F0084F8400084F8410084F8420084F85F
:103F7000430084F8440084F8450084F8460084F83F
:103F8000470084F83D00002010BD000010B584B04B
:103F9000006840F60001C4F2000188422AD040F2D5
:103FA0000041C4F20001884214D0B0F1804F1CBF20
:103FB00004B010BD41F25800C4F2020001681C2494
:103FC00041F001010160006800F0010003900398D6
:103FD0001EE000BF41F25800C4F2020001681D2437
:103FE00041F002010160006800F0020002900298B6
:103FF0000EE000BF41F25800C4F2020001681E2426
:1040000041F004010160006800F004000190019893
:10401000204600210022FFF74FF8204604B0BDE8FB
:104020001040FFF737B8000090F83D1001291BD170
:10403000022180F83D10016842F6FF32C868C4F2E0
:104040000102914240F00100C8600FDC40F2FF70B5
:10405000C4F20000814219DCB1F1804F2ED040F251
:104060000040C4F2000027E00120704743F6FF70D3
:10407000C4F20100814215DC42F60040C4F20100A6
:1040800081421BD043F2004014E000BF40F6000024
:10409000C4F20000814211D040F60040C4F200009A
:1040A0000AE000BF45F20000C4F20100814205D0E1
:1040B00044F20000C4F2010081420CD1886807225A
:1040C000C0F201020240062A4FF00000CDD0B2F546
:1040D000803F08BF7047086840F00100086000207A
:1040E0007047000090F83C20012A4FF0020200F0D7
:1040F000998080B580F83D20D0F800C08822DCF897
:104100000830CFF6CE721A40CCF808200B68B3F511
:10411000005F0DDA3F2B21DD5F2B3BDD602B00F0D4
:10412000AB80702B00F09480B3F5805F71D0E7E036
:104130002F22C0F21002934218DD4F21C0F210016D
:104140008B424FDD5021C0F210018B4255D06021CF
:10415000C0F210018B4250D0702149E01F2B0FDCC0
:10416000002B4AD0102B48D0CAE000BFB3F1101F7B
:104170000CDAB3F5005F57D0B3F5801F3DD0BFE038
:10418000202B3AD0302B38D0BAE000BF35D02021D8
:104190002EE000BF402B00F09180502B40F0B0800B
:1041A000D1F804E0C968DCF82030DCF8202022F0E7
:1041B0000102CCF82020DCF8182022F0F00242EABC
:1041C000011123F00A0242EA0E02CCF81810CCF8D2
:1041D0002020DCF808104FF68872CFF6CF7211401D
:1041E000573114E03021C0F210018B4205D040213C
:1041F000C0F210018B4240F08380DCF808104FF6CB
:104200008872CFF6CF721140194341F00701CCF804
:1042100008100022012180F83D10002180F83C1098
:10422000BDE8804010467047D1E901E3C968DCF879
:10423000082043EA0E0322F47F4243EA012111439E
:10424000CCF80810DCF8081041F48041DFE700BF2B
:10425000D1E901E3C968DCF8082043EA0E0322F43F
:104260007F4243EA01211143CCF80810DCF8081022
:1042700041F07701CBE700BFD1F804E0C968DCF872
:104280002030DCF8202022F01002CCF82020DCF8CE
:10429000182022F4704242EA013123F0A00242EADF
:1042A0000E12CCF81810CCF82020DCF808104FF6CD
:1042B0008872CFF6CF7211406731A8E7D1F804E0D9
:1042C000C968DCF82030DCF8202022F00102CCF8AC
:1042D0002020DCF8182022F0F00242EA011123F03D
:1042E0000A0242EA0E02CCF81810CCF82020DCF8C2
:1042F00008104FF68872CFF6CF721140473186E72B
:10430000012287E770470000F0B581B004460068DD
:10431000C5680669B10717D515F0020114D06FF012
:1043200002010161012121778069800704D02046C4
:10433000FFF7E8FF06E000BF204600F0CBF820467C
:1043400000F0CAF800202077700719D515F0040096
:1043500016D020686FF00401016102212177806985
:1043600010F4407F04D02046FFF7CCFF06E000BFEA
:10437000204600F0AFF8204600F0AEF8002020778D
:10438000300717D515F0080014D020686FF0080129
:10439000016104212177C069800703D02046FFF71F
:1043A000B1FF05E0204600F095F8204600F094F8B3
:1043B00000202077F00619D515F0100016D02068DF
:1043C0006FF01001016108212177C06910F4407F6E
:1043D00004D02046FFF796FF06E000BF204600F01D
:1043E00079F8204600F078F800202077F00718BF11
:1043F00015F0010006D020686FF001010161204630
:1044000000F06CF816F4025F05F0800718BF002F6B
:1044100002D1F00509D410E020686FF40251016167
:104420002046FFF705FDF00507D537B120686FF48A
:10443000807101612046FFF7F9FC700609D515F07F
:10444000400006D020686FF040010161204600F076
:10445000ADF8B00609D515F0200006D020686FF041
:10446000200101612046FFF7E5FCF00209D515F4B3
:10447000801006D020686FF4801101612046FFF79C
:10448000DDFCB00209D515F4001006D020686FF4E9
:10449000001101612046FFF7CFFC700209D515F429
:1044A000800006D020686FF4800101612046FFF78C
:1044B000C7FC30020CD515F4000009D021686FF458
:1044C000000220460A6101B0BDE8F040FFF72ABDB6
:1044D00001B0F0BD704700007047000040F6641165
:1044E000C2F2000188424BD040F6B011C2F2000186
:1044F00088424BD040F6FC11C2F20001884218BF3E
:10450000704740F20C01C2F20001B1F834010130F1
:1045100082B2132AA1F834013ED191ED180A9FED21
:104520001F2A20EE001A9FED1E3A31EE021A81EE8C
:10453000031A4A6DD1F8000182604A6E80ED030AC9
:10454000B7EE000A02618A6DB4EE401AF1EE10FA7D
:10455000C8BFB0EE401A9FED130AB5EE401AF1EE57
:1045600010FAB8BFB0EE401A9FED0F0A426121EE7B
:10457000000A0022A1F8342180ED010A03F0A8BA54
:1045800040F20C00C2F2000002F0F4BF40F20C0056
:10459000C2F2000002F0ECBB704700BF0000F2C2A4
:1045A0000000FC43000000000000C842704700000B
:1045B00090F88410012904BF022070472421C0F81C
:1045C000881001680A680B6822F0005223F001038A
:1045D0000B60002343660A602021C0F8881080F831
:1045E00084300020704700007047000070470000D2
:1045F00090F88420012A04BF02207047B0B524221D
:10460000C0F888200268D0F864E0D2F800C01368CF
:10461000BEF1000F23F001031360936823F0606381
:1046200041EA0301916019D09368916848F2006EE5
:10463000490FC0F6000E48F208651EF80140C0F6AA
:104640000005695CC3F34263E400B4FBF1F11EF8BA
:104650000340EB5CE500B5FBF3F301E0012101232E
:10466000A0F86A102021A0F86830C2F800C0C0F895
:104670008810002180F884100020B0BD90F88420BC
:10468000012A04BF02207047B0B52422C0F8882058
:104690000268D0F864E0D2F800C01368BEF1000FE1
:1046A00023F001031360936823F0604341EA0301A0
:1046B000916019D09368916848F2006E490FC0F676
:1046C000000E48F208651EF80140C0F60005695C5E
:1046D000C3F34263E400B4FBF1F11EF80340EB5C6A
:1046E000E500B5FBF3F301E001210123A0F86A1016
:1046F0002021A0F86830C2F800C0C0F8881000215E
:1047000080F884100020B0BD7047000070470000A2
:104710007047000070B5026840F62F04D369116835
:1047200096681C40202C0BD101F0200406F0805527
:104730002D1916D0416F61B3BDE87040084700BF26
:1047400040F60F052B420CD00125C1F2000506EA08
:10475000050C40F22015C0F200450D4015EB0C058C
:1047600024D1C46EDD0615D5012C13D111F010052E
:1047700010D0102111629168490661D4B0F85C1024
:10478000B0F85E20B0F85E30002B18BF914240F0C8
:10479000518270BDDD0215D516F4800512D04FF49C
:1047A00080111162BDE87040FFF7B0BFDD0718BF90
:1047B00011F4807540F020819D0706F0010E00F194
:1047C000278130E11A0606D501F0800206F40006C2
:1047D000921940F0AF825A0640F1028111F0400276
:1047E00000F0FE80016851E8001F026821F04001DE
:1047F00042E80013DBB1016851E8001F026821F0B4
:10480000400142E8001393B1016851E8001F0268BB
:1048100021F0400142E800134BB1016851E8001F4C
:10482000026821F0400142E80013002BDAD1202178
:10483000C0F8881000218167BDE8704000F0FABB25
:10484000D0F880100A685368B0F85C4099B200292B
:1048500000F0B880A14280F0B580A0F85E30116809
:10486000890600F1A38000BF016851E8001F0268BB
:1048700021F4807142E80013E3B1016851E8001FA0
:10488000026821F4807142E800139BB1016851E88D
:10489000001F026821F4807142E8001353B10168DF
:1048A00051E8001F026821F4807142E80013002BD8
:1048B000DAD100BF016851E8021F026821F001014E
:1048C00042E80213BBB3016851E8021F026821F0FD
:1048D000010142E8021373B3016851E8021F026844
:1048E00021F0010142E802132BB3016851E8021FD5
:1048F000026821F0010142E80213002BDAD11AE02C
:10490000016851E8021F026821F0400142E80213E9
:10491000DBB1016851E8021F026821F0400142E862
:10492000021393B1016851E8021F026821F04001AF
:1049300042E802134BB1016851E8021F026821F0FE
:10494000400142E80213002BDAD12021C0F88C107C
:104950000021C166016851E8001F026821F01001C2
:1049600042E80013DBB1016851E8001F026821F042
:10497000100142E8001393B1016851E8001F02687A
:1049800021F0100142E800134BB1016851E8001F0B
:10499000026821F0100142E80013002BDAD1D0F8B0
:1049A000801004460846FCF713FD204602210167EB
:1049B000B0F85C10B0F85E20891A89B2BDE870408A
:1049C000FFF712BE8C427FF4E4AE126892067FF5C8
:1049D000E0AE02220267BDE87040FFF705BE00BFEF
:1049E0001A0240F1B38111F0804200F0AF81BDE8BE
:1049F0007040FFF789BE00BF01251562D0F89050C6
:104A000045F00105C0F890509D0706F0010E0AD54B
:104A1000BEF1000F07D002241462D0F8904044F099
:104A20000404C0F890405C070AD5BEF1000F07D01F
:104A300004251562D0F8905045F00205C0F890505A
:104A40001D070CD501F0200555EA0C0507D00825F7
:104A50001562D0F8905045F00805C0F890501D053B
:104A60000BD511F0806508D04FF400651562D0F8C1
:104A7000905045F02005C0F89050D0F89050002D8F
:104A80003FF487AE9B060BD501F0200106F0805362
:104A9000C91805D0416F19B10446884722682046DD
:104AA000D0F89010926801F0280102F040028918B5
:104AB00006D10446FFF72CFE0020C4F8900070BD1C
:104AC000016851E8001F026821F4907142E8001368
:104AD000DBB1016851E8001F026821F4907142E8DF
:104AE000001393B1016851E8001F026821F490712E
:104AF00042E800134BB1016851E8001F026821F43D
:104B0000907142E80013002BDAD14FF6FE71CEF619
:104B1000FF7100BF026852E8022F03680A4043E8B1
:104B20000226C6B1026852E8022F03680A4043E831
:104B3000022686B1026852E8022F03680A4043E861
:104B4000022646B1026852E8022F03680A4043E891
:104B50000226002EDED1C16E012924D1016851E860
:104B6000001F026821F0100142E80013DBB1016868
:104B700051E8001F026821F0100142E8001393B1D0
:104B8000016851E8001F026821F0100142E800139B
:104B90004BB1016851E8001F026821F0100142E8A2
:104BA0000013002BDAD12021C0F88C100021C1663F
:104BB000026841679168490640F1C480016851E884
:104BC000021F026821F0400142E80213DBB10168D4
:104BD00051E8021F026821F0400142E8021393B13C
:104BE000016851E8021F026821F0400142E8021307
:104BF0004BB1016851E8021F026821F0400142E810
:104C00000213002BDAD1D0F88010002900F09A802E
:104C100046F22902C0F60002044608468A63FCF701
:104C20000FFC00283FF4B5ADD4F88000816BBDE8DF
:104C300070400847891A00BF026852E8002F0368D5
:104C400022F4907243E80026DEB1026852E8002F99
:104C5000036822F4907243E8002696B1026852E895
:104C6000002F036822F4907243E800264EB10268D8
:104C700052E8002F036822F4907243E80026002EC9
:104C8000DAD14FF6FE72CEF6FF7200BF036853E82A
:104C9000023F0668134046E80235C5B1036853E891
:104CA000023F0668134046E8023585B1036853E8C1
:104CB000023F0668134046E8023545B1036853E8F1
:104CC000023F0668134046E80235002DDED120225F
:104CD000C0F88C200022C266426700BF026852E81A
:104CE000002F036822F0100243E80026DEB10268BC
:104CF00052E8002F036822F0100243E8002696B124
:104D0000026852E8002F036822F0100243E80026F0
:104D10004EB1026852E8002F036822F0100243E807
:104D20000026002EDAD1022289B20267BDE8704067
:104D3000FFF75ABC816F00293FF42BADBDE87040EE
:104D4000084700BFBDE87040FFF7E2BCDA017FF51D
:104D500020ADB1F1FF3FC8BF70BDBDE87040FFF7A7
:104D600045BC000010B5D0B10446D0F8880028B981
:104D7000002084F88400204600F026F82420C4F89F
:104D800088002068A16A026822F00102026011B165
:104D9000204601F01FF8204601F096FA10B10120DC
:104DA00010BD00BF2168486820F4904048608868C2
:104DB00020F02A008860086840F0010220460A605E
:104DC000BDE8104001F07AB82DE9F0439BB00446ED
:104DD00000201A90CDE91800CDE9160001A8542151
:104DE000FBF708FB206843F60001C4F2010188428A
:104DF0003AD044F60041C4F20001884240F0A2805B
:104E00000820019001A8FEF725FA002818BFFBF73B
:104E10008BFC41F24C00C4F20200C16841F4002155
:104E2000C160C16801F4002100910099016841F05E
:104E300004010160006816A900F0040000900098C9
:104E40004FF440601690022017900020CDE9180022
:104E500005201A9040F60000C4F60000FDF73AF96C
:104E60001BB0BDE8F08300BF0120019001A8FEF750
:104E7000F1F9002818BFFBF757FC41F24C00C4F2CF
:104E80000200416940F2440841F4804141614169B6
:104E9000002601F48041009100990168C4F20208E3
:104EA00041F004010160006816A900F004000090C0
:104EB0000098302016900220179007201A9040F694
:104EC0000000C4F60000CDE91866FDF703F940F2D2
:104ED0004475C2F2000518204FF08009C5E9008032
:104EE0004FF400572846C5E90266C5E90496C5E9AE
:104EF00006662F62FCF73AFB002818BFFBF714FC8C
:104F0000C4F88050AC6240F2A47508F11400C2F2FB
:104F100000051921102285E847022846C5E90566E3
:104F2000C5E90767FCF722FB002818BFFBF7FCFB6D
:104F3000252000210022E567AC62FEF7BDF82520A0
:104F4000FEF7A8F81BB0BDE8F0830000D0F8883069
:104F5000202B09D1944600294FF0010218BFBCF163
:104F6000000F05D11046704702221046704700BF5F
:104F7000B0B5002221230165A0F854C0A0F856C0A6
:104F8000C0F89020C0F88830C36F2BB346F23505C7
:104F9000C0F6000546F2112446F2C12E5D63056895
:104FA000C0F60004C0F6000EC3E90B4E9A6305F18B
:104FB0002802044618466346FCF764FB0146204677
:104FC00051B11021C0F890102021C0F888100122A2
:104FD000BDE8B04010467047016840220A6200BF39
:104FE000016851E8021F026841F0800142E80213A3
:104FF000DBB1016851E8021F026841F0800142E81C
:10500000021393B1016851E8021F026841F0800168
:1050100042E802134BB1016851E8021F026841F0F7
:10502000800142E80213002BDAD10022BDE8B04033
:105030001046704770470000704700002DE9F041AE
:1050400000687F2A00F1800000EBC114A04658F8E8
:1050500064EF4FF0000158F82CCC00F32D80013A9A
:105060003F2A00F24080DFE802F021393E213E3E37
:105070003E393E3E3E3E3E3E3E213E3E3E3E3E3E72
:105080003E3E3E3E3E3E3E3E3E393E3E3E3E3E3E45
:105090003E3E3E3E3E3E3E3E3E3E3E3E3E3E3E3E30
:1050A0003E3E3E3E3E3E3E3E3E2100BFD3E9011223
:1050B000E1632264002116E0B2F5007F08DB0DD029
:1050C000B2F5006F0AD0B2F5806FEFD00BE000BFF1
:1050D000802A03D0B2F5807FE8D004E0D3E9011242
:1050E00061641021A264D3E90506D3E90347304384
:1050F0001D683843FE2220438A4028432EEA0202DC
:105100008840082F42EA000208BF1CF0022003D0AA
:10511000C8F80020BDE8F081D86988400243C8F88B
:105120000020BDE8F0810000FEE7000010B58CB063
:1051300040F2A8300024C2F200004FF0A0414FF42A
:105140004032042380E81600C0E905434FF4D462DE
:105150004FF480630121C0E90B230C2200F1440CC1
:105160000B94CDE90944CDE90744CDE90544CDE9E7
:105170000344CDE90144C0E903448483016280F81B
:10518000244080F83810C46380F8401080238CE8F5
:105190001C000165FBF7BAFD002818BFFBF7C4FA35
:1051A00040F2A830C2F2000009A90994FBF732FBD3
:1051B000002818BFFBF7B8FA0220C0F23040019077
:1051C00006207F2102900020049104210390CDE964
:1051D000051040F2A830C2F2000001A9FBF7B4FBB1
:1051E000002818BFFBF7A0FA0CB010BDB0B588B00E
:1051F00040F2144040F20011C2F20000C5F200017A
:105200004FF44032002480E816004FF4D4624FF48B
:10521000806304250121C0E90B230C2200F1440C1A
:10522000CDE90644CDE90444CDE90244CDE900448A
:10523000C0E90344C0E905458483016280F8244045
:1052400080F83810C46380F8401080238CE81C007C
:105250000165FBF75BFD002818BFFBF765FA082026
:10526000C0F69040009006200190032002907F201D
:10527000CDE9030540F21440C2F2000069460594EE
:10528000FBF762FB002818BFFBF74EFA08B0B0BD71
:1052900010B58CB040F2804040F200410024C2F2D0
:1052A0000000C5F200014FF44032042380E81600EC
:1052B000C0E905434FF4D4624FF480630121C0E993
:1052C0000B230C2200F1440C0B94CDE90944CDE9E9
:1052D0000744CDE90544CDE90344CDE90144C0E9E3
:1052E00003448483016280F8244080F83810C4634A
:1052F00080F8401080238CE81C000165FBF706FD58
:10530000002818BFFBF710FA40F28040C2F20000FC
:1053100009A90994FBF77EFA002818BFFBF704FAE5
:105320000220C0F23040019006200290032003903A
:105330007F200490042005900020069040F28040D9
:10534000C2F2000001A9FBF7FFFA002818BFFBF723
:10535000EBF90CB010BD0000B0B588B040F2EC40E5
:1053600040F20051C2F20000C5F200014FF4403299
:10537000002480E816004FF4D4624FF480630425C3
:105380000121C0E90B230C2200F1440CCDE90644B5
:10539000CDE90444CDE90244CDE90044C0E9034429
:1053A000C0E905458483016280F8244080F8381004
:1053B000C46380F8401080238CE81C000165FBF773
:1053C000A5FC002818BFFBF7AFF90820C0F69040F5
:1053D000009006200190032002907F20CDE9030574
:1053E00040F2EC40C2F2000069460594FBF7ACFACB
:1053F000002818BFFBF798F908B0B0BDB0B588B069
:1054000040F2585040F20061C2F20000C5F20001C3
:105410004FF44032002480E816004FF4D4624FF479
:10542000806304250121C0E90B230C2200F1440C08
:10543000CDE90644CDE90444CDE90244CDE9004478
:10544000C0E90344C0E905458483016280F8244033
:1054500080F83810C46380F8401080238CE81C006A
:105460000165FBF753FC002818BFFBF75DF902202C
:10547000C0F23040009006200190032002907F206F
:10548000CDE9030540F25850C2F200006946059488
:10549000FBF75AFA002818BFFBF746F908B0B0BD71
:1054A00080B584B041F24800C4F2020001680022D5
:1054B00041F004010160016801F0040103910399C6
:1054C000016841F001010160016801F001010291F0
:1054D0000299016841F0020101600068002100F0BA
:1054E0000200019001980B20FDF7E6FD0B20FDF76F
:1054F000D1FD0C2000210022FDF7DEFD0C20FDF780
:10550000C9FD0D2000210022FDF7D6FD0D20FDF77D
:10551000C1FD0E2000210022FDF7CEFD0E20FDF77B
:10552000B9FD0F2000210022FDF7C6FD0F20FDF779
:10553000B1FD382000210022FDF7BEFD3820FDF727
:10554000A9FD392000210022FDF7B6FD392004B065
:10555000BDE88040FDF79EBD80B540F6040046F6EC
:105560000001C2F20000C4F200010022C0E90012F2
:105570000121112301824FF0050C4FF0040EC0E908
:105580000531C0E909311C210823C0E902228274D7
:10559000C0E907CEC0E90BCEC0E90D13C263FCF72A
:1055A000C1FB002808BF80BDBDE88040FBF7BCB848
:1055B00081B041F24C00C4F20200016841F02001C8
:1055C0000160016801F0200100910099016841F03B
:1055D00001010160016801F0010100910099016879
:1055E00041F004010160016801F00401009100999B
:1055F000016841F002010160006800F002000090C3
:10560000009801B070470000F0B5C1B01CAC46F680
:105610000005002620466021C4F20105CDE9386668
:10562000CDE93666CDE93466FAF7E4FE09A824210F
:10563000CDE91A66CDE91866CDE91666CDE914669E
:10564000CDE91266FAF7D6FE40F66800C2F2000015
:10565000CDE90766CDE90566CDE90366CDE90166CA
:10566000C0E900568660FDF785F8002818BFFBF7F3
:105670005BF840F66800C2F200000C21FDF704F868
:10568000002818BFFBF750F840F66800C2F200008F
:105690000A21FDF7FFF8002818BFFBF745F80020A6
:1056A00038901020399040F66800C2F2000038AA05
:1056B0000121FCF799FE002818BFFBF735F840F6EA
:1056C0006800C2F2000001210222FCF7E3FD00287D
:1056D00018BFFBF729F846F6402034900820379091
:1056E00040F668000026C2F2000034AA0621CDE987
:1056F0003566FDF70DF9002818BFFBF715F80120F6
:10570000209004F114002421CDE91E66CDE91C6629
:105710003396FAF76FFE40F66800C2F200000621E9
:105720002246FDF773FA002818BFFAF7FDFF43F28F
:105730001040199040F66800C2F2000019AB062133
:105740000122FDF71FF9002818BFFAF7EDFF43F219
:105750003060199040F66800C2F2000019AB0621D3
:105760000222FDF70FF9002818BFFAF7DDFF43F218
:105770001040199040F66800C2F2000019AB0621F3
:105780000422FDF7FFF8002818BFFAF7CDFF43F217
:105790003060199040F66800C2F2000019AB062193
:1057A0000822FDF7EFF8002818BFFAF7BDFF40F612
:1057B0006800C2F2000034AA0121FDF7A9F8002810
:1057C00018BFFAF7B1FF40F668000024C2F20000EB
:1057D00012AA012112941894FDF798FB002818BF13
:1057E000FAF7A2FF4FF0006026904FF00050CDE98D
:1057F00029044FF48070CDE92D0440F66800C2F210
:1058000000001CAA0121CDE91C44CDE92B44CDE9BF
:1058100030443294FDF7FAF9002818BFFAF784FFF4
:1058200040F668000024C2F200001CAA04212E9455
:10583000FDF7ECF9002818BFFAF776FF5020CDE904
:105840000A04CDE90E0440F66800C2F2000009AA7D
:1058500001210994CDE90C44CDE91044FCF73EFF49
:10586000002818BFFAF760FF40F66800C2F2000097
:1058700009AA0421FCF732FF002818BFFAF754FFE9
:105880004FF48071002002914FF400710190CDE936
:105890000310CDE90500CDE9070040F66800C2F22B
:1058A000000001AB01210422FDF766F9002818BFB2
:1058B000FAF73AFF4FF4806002904FF400600390D3
:1058C00040F66800C2F2000001AB04214FF4807280
:1058D000FDF752F9002818BFFAF726FF0020CDE99E
:1058E000020040F66800C2F2000001AB012108226C
:1058F000FDF742F9002818BFFAF716FF40F66800D6
:10590000C2F2000001AB04214FF40072FDF734F93C
:10591000002818BFFAF708FF40F66800C2F200003E
:1059200034AA0421FCF7F4FF002818BFFAF7FCFEA4
:1059300040F66804C2F2000412AA20460421FDF7D2
:10594000E5FA002818BFFAF7EFFE20680026A84203
:105950004096CDE93E663D963C9601D041B0F0BD03
:1059600041F24C00C4F2020001683CAC41F0040179
:1059700001600168022501F004013B913B99016837
:10598000032741F0010101600068214600F0010099
:105990003B903B984FF440703C9040F60000C4F6BA
:1059A0000000CDE93D56CDE93F77FCF793FB4FF47E
:1059B00040603CA9E1C10D2040904FF0904021464D
:1059C000FCF788FB41B0F0BD80B588B040F66410AC
:1059D0000021C2F200004FF0804242F233130791DF
:1059E000CDE905110291C0E90021C0E9021301616E
:1059F00080218161FEF798FA002818BFFAF794FE1B
:105A00004FF48050049040F66410C2F2000004A9E4
:105A1000FEF768FB002818BFFAF786FE0020019009
:105A2000039040F66410C2F2000001A9FEF70AFAE2
:105A3000002818BFFAF778FE08B080BD80B588B09E
:105A400040F6B01040F200420021C2F20000C4F261
:105A5000000240F251330791CDE905110291C0E9EE
:105A60000021C0E9021301618161FEF75DFA00289F
:105A700018BFFAF759FE4FF48050049040F6B0106A
:105A8000C2F2000004A9FEF72DFB002818BFFAF7A8
:105A90004BFE00200190039040F6B010C2F20000CF
:105AA00001A9FEF7CFF9002818BFFAF73DFE08B0AC
:105AB00080BD000080B588B040F6FC1040F60002C2
:105AC0000021C2F20000C4F2000244F267230791F1
:105AD000CDE905110291C0E90021C0E9021301617D
